:0300000002096092
:0C096000787FE4F6D8FD75810F0209A72E
:100AAE0057656C636F6D652E2E2E0054656D703A12
:100ABE000046616E3A004F4646202020202020003E
:100ACE00534C4F572020202020004D454449554D72
:0E0ADE002020200046415354202020202000DC
:090BBC00010D00010F00010E0003
:03000B00020A6C7A
:100A6C00C0E0C0D0E50E7008C287C286F50F802D9D
:100A7C00C286050FE50FC394644003750F00E50DA6
:100A8C007004C2878017E50DC394644004D287803C
:100A9C000CE50FC3950D50028001C39287D0D0D0C6
:020AAC00E03236
:0B0B9D00EFD3946440027F648F0D22B0
:0A0BA800E4F50EF50DC286C28722A7
:060BC600C286750E01223B
:100AEC00D2B0D2B1120B74C2B1120B74D2B17F104E
:100AFC007E2730B20BEF1F70011EEF4E70F4FF22F9
:100B0C00C2B0120B7485900AD2B0C2B17F057E00C0
:070B1C00120B78D2B1AF0A01
:010B230022AF
:10080000E4F5A0C2B5C2B4C2B37590FFD2B2D2B003
:10081000D2B1120BA8758902758CAE758AAED2A9B9
:10082000D2AFD28C7F147E00120B2E7F38120BB207
:100830007F0E120BB27F06120BB27F01120BB27F3A
:10084000057E00120B2E7F0C120BB27F80120BB2B2
:100850007BFF7A0A79AE120B4E7FDC7E05120B2EDF
:100860007F01120BB27F057E00120B2E7F80120BD0
:10087000B27BFF7A0A79B9120B4E7FC0120BB27BA2
:10088000FF7A0A79BF120B4E120AEC7E007C007DC3
:1008900064120A057D33120A178E088F09D3E50901
:1008A00094C7E508940040067508007509C77F865F
:1008B000120BB2AE08AF097C007D64120A17EF2458
:1008C00030FF120B95AE08AF097C007D0A120A17A3
:1008D000120B8AAE08AF09120B8A7FDF120B957FCD
:1008E00043120B95C3E509941EE508940050137F4D
:1008F000C5120BB27BFF7A0A79C4120B4E120BA8F9
:100900008054C3E5099432E508940050157FC51260
:100910000BB27BFF7A0A79CE120B4E120BC67F1EEA
:100920008031C3E5099446E50894007FC550131251
:100930000BB27BFF7A0A79D8120B4E120BC67F419D
:100940008011120BB27BFF7A0A79E2120B4E120B66
:10095000C67F64120B9D7FF47E01120B2E02088865
:0B0B8A007C007D0A120A17ED2430FFEA
:080B95008FA0120B24C2B5224F
:100B4E008B0A8A0B890CAB0AAA0BA90C1209EC6052
:100B5E0014F5A0120B24C2B57401250CF50CE43566
:060B6E000BF50B80E122F3
:0A0BB2008FA0C2B3120B26C2B522B9
:0A0B2400D2B3C2B4D2B57F017E0047
:100B2E00E4FDFCC3ED9FEC9E5015E4FBFA0BBB00FD
:0F0B3E00010AEB647D4A70F50DBD00010C80E4E7
:010B4D002285
:040B74007F0A7E0076
:100B7800E4FDFCC3ED9FEC9E50070DBD00010C8009
:010B8800F27A
:010B89002249
:10096C00020800E493A3F8E493A34003F68001F299
:10097C0008DFF48029E493A3F85407240CC8C3338C
:10098C00C4540F4420C8834004F456800146F6DF5B
:10099C00E4800B0102040810204080900BBCE47E24
:1009AC00019360BCA3FF543F30E509541FFEE49350
:1009BC00A360010ECF54C025E060A840B8E493A317
:1009CC00FAE493A3F8E493A3C8C582C8CAC583CA42
:1009DC00F0A3C8C582C8CAC583CADFE9DEE780BEFA
:010BC500002F
:1009EC00BB010689828A83E0225002E722BBFE0209
:0909FC00E32289828A83E493223C
:100A0500EF8DF0A4A8F0CF8CF0A428CE8DF0A42E05
:020A1500FE22BF
:100A1700BC000BBE0029EF8DF084FFADF022E4CCC3
:100A2700F875F008EF2FFFEE33FEEC33FCEE9DEC8C
:100A3700984005FCEE9DFE0FD5F0E9E4CEFD22EDD2
:100A4700F8F5F0EE8420D21CFEADF075F008EF2F1C
:100A5700FFED33FD4007985006D5F0F222C398FD0D
:050A67000FD5F0EA22AA
:00000001FF
